:100000000C942A000C943F000C943F000C943F0089
:100010000C943F000C943F000C943F000C943F0064
:100020000C943F000C943F000C943F000C943F0054
:100030000C943F000C943F000C943F000C943F0044
:100040000C943F000C943F000C943F000C943F0034
:100050000C943F0011241FBECFE5D8E0DEBFCDBF1A
:1000600014E0A0E6B0E0E2E9F3E002C005900D92F2
:10007000A837B107D9F70E94C0010C94C7010C94AE
:100080000000413091F018F0423029F10895E82F36
:10009000F0E0EE0FFF1FE059FB4F0190F081E02DE3
:1000A0008081609568236083089590E0880F991F90
:1000B000FC01E059FB4F0190F081E02D3081262FAB
:1000C00020952323208388599B4FDC01ED91FC91DF
:1000D0008081682BE8CFE82FF0E0EE0FFF1FE0599A
:1000E000FB4F0190F081E02DF3CF442319F0413014
:1000F00079F00895E82FF0E0EE0FFF1FE859FB4F6D
:100100000190F081E02D80816095682360830895DF
:10011000E82FF0E0EE0FFF1FE859FB4F0190F08150
:10012000E02D8081682BF2CF613081F018F06230D1
:1001300009F10895E82FF0E0EE0FFF1FE059FB4FA3
:100140000190F081E02D80811082089590E0880F69
:10015000991FFC01E059FB4F0190F081E02D2081B7
:10016000108288599B4FDC01ED91FC9180818FEFCB
:1001700080830895E82FF0E0EE0FFF1FE059FB4F5A
:100180000190F081E02DF2CFE82FF0E0EE0FFF1F9D
:10019000E859FB4F0190F081E02D80811082808131
:1001A000682B60830895E82FF0E0EE0FFF1FE859F9
:1001B000FB4F0190F081E02D8081682760830895D6
:1001C000E82FF0E0EE0FFF1FE05AFB4F0190F081A7
:1001D000E02D8081682319F4FA011082089581E0EE
:1001E000FA0180830895682F82E00E94C4008FE3A3
:1001F0009FE10197F1F700C0000040E064E083E078
:100200000E94750040E062E083E00E94750041E0DA
:1002100061E083E00E9475008FE39FE10197F1F7B1
:1002200000C0000040E061E083E00C947500682F9E
:1002300082E00E94C4008FE39FE10197F1F700C0C4
:10024000000041E064E083E00E94750040E062E06D
:1002500083E00E94750041E061E083E00E94750048
:100260008FE39FE10197F1F700C0000040E061E0FB
:1002700083E00C94750041E068E083E00E94750023
:1002800040E060E183E00C94750041E060E183E0D0
:100290000E94750040E068E083E00C94750062E025
:1002A00082E00E94940042E06FE383E00E944100FC
:1002B00041E060E283E00E9475008FE39FE10197D7
:1002C000F1F700C000000E943B0188EB0E94F300A0
:1002D00080E40E94F3008FE30E94F3000E94450136
:1002E00088EB0E94F30080E40E94F3008FE30C94FB
:1002F000F300AF92BF92DF92EF92FF920F931F93A2
:10030000CF93DF938C01C0E00E943B018C2F886B60
:10031000D82E0E94F30080E40E94F3007801D0E020
:100320005701D03879F4CF5F00581F4FC83061F7BC
:10033000DF91CF911F910F91FF90EF90DF90BF90D1
:10034000AF900895D03441F40E9445018D2D0E9454
:10035000F30080E40E94F300EFEFEE1AFE0AF501CD
:1003600080810E941701DF5FDBCFCF93DF93EC0129
:1003700088EC0E94F3008881DF91CF910C941701E3
:100380000E944F0180E690E00E94B501FFCFF894F3
:02039000FFCF9D
:10039200000000000000000000000000000000005B
:1003A200000000000000000000000000000000004B
:1003B200000000000000000080C0C0E0F0F0F8F88B
:1003C200F8F8F87C7C7C7CF8F8F8F8F0F0E0E0C013
:1003D200C0800000000000000000000080C0C0E0FB
:1003E200E0F0F0F8F8F8F87C7C7C7C78F8F8F8F823
:1003F200F0F0E0E0C080000000000000000000001B
:1004020000000000000000000000000000000000EA
:1004120000000000000000000000000000000000DA
:1004220000000000000000000000000000000000CA
:1004320000000000C0F8FCFFFF7F1F07030301005C
:100442000000000000000000000001010303070F8C
:100452001F3FFFFEFCF8E0E0F0FCFEFF7F1F0F07EE
:100462000303010100000000000000000000000181
:100472000103071F3FFFFFFCF8E00000000000003F
:10048200000000000000000000000000000000006A
:10049200000000000000000000000000000000005A
:1004A200000000000000000000000000000000004A
:1004B200000000FCFFFFFFFF03000000000000003F
:1004C20000000000008080808080808080808080AA
:1004D200808080C3071F1F9F9F8F838080808080C2
:1004E200808000000000000000000000000000000A
:1004F200000000000001FFFFFFFFFE0000000000FF
:1005020000000000000000000000000000000000E9
:1005120000000000000000000000000000000000D9
:1005220000000000000000000000000000000000C9
:10053200000000001F7FFFFFFFF0C000000000006E
:10054200000000000003010101010101FFFF0101A0
:1005520001010101000000030101010181C1F13922
:100562001F0F030000000000000000000000000058
:1005720000000080F0FFFFFFFF1F010000000000ED
:100582000000000000000000000000000000000069
:100592000000000000000000000000000000000059
:1005A2000000000000000000000000000000000049
:1005B200000000000000030F1F7FFFFEFCF0C08060
:1005C2000000000000000000000000C0FFFF00006B
:1005D20000000000000000C0F0781C0F03010000C2
:1005E200000080000000000000000000000080C049
:1005F200F0FCFEFF7F3F0F03000000000000000040
:1006020000000000000000000000000000000000E8
:1006120000000000000000000000000000000000D8
:1006220000000000000000000000000000000000C8
:10063200000000000000000000000103070F1F7F00
:10064200FFFEF8F0F0E0C0800000000103030000AC
:10065200000000000000000303030303030303037D
:1006620003030300000080C0C0E0F0F8FEFF7F3FFC
:100672000F0703010000000000000000000000005E
:100682000000000000000000000000000000000068
:100692000000000000000000000000000000000058
:1006A2000000000000000000000000000000000048
:1006B2000000000000000000000000000000000038
:1006C20000000103070F1F3F3F7EFCFCF8F0F0E043
:1006D200E0C080800000000000008080C0E0E0F008
:1006E200F0F8FCFC7E3F3F1F0F07030101000000F2
:1006F20000000000000000000000000000000000F8
:1007020000000000000000000000000000000000E7
:1007120000000000000000000000000000000000D7
:1007220000000000000000000000000000000000C7
:1007320000000000000000000000000000000000B7
:100742000000000000000000000000000103030799
:10075200070F0F1F1F3F3E3E3F1F1F0F0F070703CD
:100762000301000000000000000000000000000083
:100772000000000000000000000000000000000077
:100782000000000000000000000000000000000067
:1007920039003600330030003B00380035003200AB
:0807A2003A0037003400310079
:00000001FF
